{
  "transactions": [
    {
      "hash": "0xf64ebda182c86449dcfa4503ae6408bddee9b7beb1c8b427d4473ce21ab23de1",
      "transactionType": "CALL",
      "contractName": null,
      "contractAddress": "0xe03a1074c86cfedd5c142c4f04f1a1536e203543",
      "function": "initialize((address,address,uint24,int24,address),uint160)",
      "arguments": [
        "(0x3490a659780016717b949281F334880F971C83cc, 0x7f63729Ef58322A4605b192beA43D70c046Eac0E, 5000, 60, 0x1277c46643f57ebeAeD849baBcfb98B07D634aC0)",
        "79228162514264337593543950336"
      ],
      "transaction": {
        "from": "0x58b529f9084d7eaa598eb3477fe36064c5b7bbc1",
        "to": "0xe03a1074c86cfedd5c142c4f04f1a1536e203543",
        "gas": "0x1277b",
        "value": "0x0",
        "input": "0x6276cbbe0000000000000000000000003490a659780016717b949281f334880f971c83cc0000000000000000000000007f63729ef58322a4605b192bea43d70c046eac0e0000000000000000000000000000000000000000000000000000000000001388000000000000000000000000000000000000000000000000000000000000003c0000000000000000000000001277c46643f57ebeaed849babcfb98b07d634ac00000000000000000000000000000000000000001000000000000000000000000",
        "nonce": "0x1aa",
        "chainId": "0xaa36a7"
      },
      "additionalContracts": [],
      "isFixedGasLimit": false
    }
  ],
  "receipts": [
    {
      "status": "0x1",
      "cumulativeGasUsed": "0x9bf00a",
      "logs": [
        {
          "address": "0xe03a1074c86cfedd5c142c4f04f1a1536e203543",
          "topics": [
            "0xdd466e674ea557f56295e2d0218a125ea4b4f0f6f3307b95f85e6110838d6438",
            "0x1b7e760d2ac6d0410e6a9da18a04b40c20a30e3902831253ed2523b500b2bd3d",
            "0x0000000000000000000000003490a659780016717b949281f334880f971c83cc",
            "0x0000000000000000000000007f63729ef58322a4605b192bea43d70c046eac0e"
          ],
          "data": "0x0000000000000000000000000000000000000000000000000000000000001388000000000000000000000000000000000000000000000000000000000000003c0000000000000000000000001277c46643f57ebeaed849babcfb98b07d634ac000000000000000000000000000000000000000010000000000000000000000000000000000000000000000000000000000000000000000000000000000000000",
          "blockHash": "0x9d81aed0ffa6f627f80ee13fe7dde1960d1d0e1d8074f766093a8c420cae154c",
          "blockNumber": "0x79ae9f",
          "transactionHash": "0xf64ebda182c86449dcfa4503ae6408bddee9b7beb1c8b427d4473ce21ab23de1",
          "transactionIndex": "0x49",
          "logIndex": "0xb5",
          "removed": false
        }
      ],
      "logsBloom": "0x00000000000000000000000000000000000000000000000000000000100000000000000000000000000000000000000000000100000000000000000000000000000040000400000000002000000000000000000000000000000000100000000000000000000000040000000000000000000000000000100000000000000000000000000000000008000000000000000000000001000000000000000000200000000000000000000800000000000000000000000000000000000000000000000000000000000000000001000000000000000000000000000000000000000000001000000000000000000000000000000000000000000000000400000000000000",
      "type": "0x2",
      "transactionHash": "0xf64ebda182c86449dcfa4503ae6408bddee9b7beb1c8b427d4473ce21ab23de1",
      "transactionIndex": "0x49",
      "blockHash": "0x9d81aed0ffa6f627f80ee13fe7dde1960d1d0e1d8074f766093a8c420cae154c",
      "blockNumber": "0x79ae9f",
      "gasUsed": "0xca0a",
      "effectiveGasPrice": "0x8867652f",
      "from": "0x58b529f9084d7eaa598eb3477fe36064c5b7bbc1",
      "to": "0xe03a1074c86cfedd5c142c4f04f1a1536e203543",
      "contractAddress": null
    }
  ],
  "libraries": [],
  "pending": [],
  "returns": {},
  "timestamp": 1742862121,
  "chain": 11155111,
  "commit": "bb2854b"
}